:100000000C94D3060C94FB060C94FB060C94FB0694
:100010000C94FB060C94FB060C94FB060C94FB065C
:100020000C94FB060C94FB060C94FB060C94FB064C
:100030000C94FB060C94FB060C94FB060C94FB063C
:100040000C948E1E0C94FB060C9482210C94B4210B
:100050000C94FB060C94FB060C94FB060C94FB061C
:100060000C94FB060C94FB0601000100010001004A
:100070000100010001000100010001000100010078
:100080000100010001000100010001000100010068
:100090000100010001000100010001000100010058
:1000A0000100010001000100010001000100010048
:1000B0000100010001000100010001000100010038
:1000C0000100010001000100010001000100010028
:1000D0000100010001000100010001000100010018
:1000E0000100010001000100010001000100010008
:1000F00001000100010001000100010001000100F8
:1001000001000100010001000100010001000100E7
:1001100001000100010001000100010001000100D7
:100120000100010001000100A2000100A300010084
:100130000100010001000100010001000100910027
:100140009200010001000100010001000100910086
:100150009200010001000100010001000100010006
:100160000100010001000100010001000100010087
:100170000100010001000100010001000100010077
:100180000100010001000100010001000100010067
:100190000100010001000100010001000100010057
:1001A0000100010001000100010001000100010047
:1001B0000100010001000100010001000100A20096
:1001C000A300A200A300A200A300010001000100FF
:1001D0000100A200A30001000100010001000100D4
:1001E0000100010001000100010001000100A20066
:1001F000010001000100A300010001000100010055
:10020000010001000100A1000100010001009100B6
:10021000920001000100A1000100010001000100A5
:1002200001000100010001000100010001000100C6
:1002300001000100010001000100010001000100B6
:100240000100010001000B000B000B000100010088
:100250000100010001000100910092000100010075
:100260000100A200A3000100010001000100010043
:100270000100010001000100010001000100010076
:1002800001000100A20001000100A300A200010082
:100290000100A300A200A300A20001000100A3002E
:1002A00001000100A200A30001000100A200A300C0
:1002B00001000100A2000100010001000100010095
:1002C0000100010001000100010001000100A10086
:1002D000010091009200A100010001000100A100B5
:1002E00001000100A200A3000100010001000100C3
:1002F00001000100010001000100020003000400F0
:100300000100010001000B000B00010001000100D1
:1003100001000100010001000B000B0001000100C1
:10032000A100010001000100A20001000100A300E2
:10033000A200A30001000100010001009100920051
:1003400001000100010001000100A2000B000B00F0
:100350000B000B000B000B0001000100A300A2002A
:100360000100010001000100A300A2000100010042
:10037000A300A20001000100A300A20001000100EF
:10038000010066006700010001000100010001009A
:10039000010001000100A1000100A1000100A10075
:1003A0000100010001004C004D004D004D004D00CA
:1003B0004E000100010002000300040001000100E2
:1003C000010001000E000100010001000100010018
:1003D0000100010001000100010001000100010015
:1003E0000100010001000100A10001000100A200C4
:1003F0000100010001000100A3000100A30037007B
:1004000038000100A1000100010001000B000B00F9
:10041000A20001000B000100A200010001000B007E
:1004200001000100020003000400010001000100BE
:100430000100A30001000100A20001000100010071
:100440000100A300A200A3000100760077000100D4
:100450004D004D004D004D004D004D004D004D0034
:100460004D004D004D004D004D004D004D0057001A
:1004700057005700570057005000010001000100CD
:100480000E00010001000100010001000E0001004A
:100490000100010001000100010001000100010054
:1004A0000100010001000100010001000100010044
:1004B0004C004D004D004D004D004D004D004D00D5
:1004C0004D004D004E00470048004C004D004E00CE
:1004D000010001000100A200010001000B00A200C8
:1004E0000100010001000B000100A20001000E004C
:1004F000010001000100010001004C004D004D0011
:100500004D004D004D004D004D004D004D004D0083
:100510004D004D004D004D000000280078000800FF
:100520007800200030000800B80020001800080003
:10053000E800180018000800180118001000080052
:1005400038011000180008006001180010000800B1
:100550008001280080000800100220001000080020
:10056000300218003000080030022000080010009F
:100570005802200008001000700220001800080037
:10058000A802280078000800D80120001000080008
:1005900073E08C1093885D78616462643F18283042
:1005A00017FC798E96918FD14FFE4FF131F900767D
:1005B00003E01C1023C81D38216422641F18783EF4
:1005C00097C999895FCA36FC2FFC23F211220E1CB1
:1005D00003E01C1023C81D38216422641F1808384A
:1005E0001FC639895FD156F22FFC23F211220E1C4F
:1005F000000007E0181023C81D38216422641F186A
:10060000083007C809840FF40D880E48043003E051
:1006100007CE083111C91EBA2686264618FC0C14CE
:100620003FE8719E89698BF17FF28FF29F8C6E009B
:1006300007C0083813C41CB82684264418F87C1E4A
:1006400093E9919953FA3F6C3FF44FC44488387052
:1006500007C0083813C41CB82684264418F81C1098
:1006600063F8919C8BFA4F6A3FF44FC4448838700A
:10067000000007E0081813C41CB82684264418F8A4
:100680000C1013E021902FF011B012700C2007C055
:100690000000000000000000000000FFFFFFFFFF5F
:1006A000FFFFFFFFFFF0FFFFFFF8930C61FFFFFF6D
:1006B000F0FFFFFFF39324E4FFFFFFF0FFFFFFF1E4
:1006C0009324E4FFFFFFF0FFFFFFF8930C61FFFFAF
:1006D000FFF0FFFFFFFC933CE1FFFFFFF0FFFFFF98
:1006E000FC933CE4FFFFFFF0FFFFFFF1C73C64FF1A
:1006F000FFFFF0FFFFFFFFFFFFFFFFFFFFF0000026
:1007000000000000000000000001CE078FE7E3CFEB
:100710007B9C3E0003CF078FF7F3CF7B9CFE00034B
:10072000FF0F8FF7FBCF7B9DFF0007FF1CCE773BB2
:10073000CF7BDDE78007FF9CCE773BCF7BFDC3807F
:100740000F77BFEE773BCF7BFDC3801F278FE7E797
:100750003BCF7BBDE7801E53EFF7F7FBFF7B9CFF92
:10076000803EABE8F777F9FE7B9D7F000D0BE6E757
:100770003BE2FD7B9CB88022040910441902006012
:1007800047001C03E0E7BBE0FC7B9C380000000056
:10079000000000000000000080402010080402015A
:1007A00001020408102040807088C424101000004A
:1007B0001C224F4B111101011424448404FC80803D
:1007C000505F4141407F0202000000FC0484442449
:1007D0000000007F4041415F010101010101010171
:1007E0008080808080808080FF01FFFFFF094111B1
:1007F000FF00FFFFFF084011FF80FFFFFF88C0914F
:1008000026262626FC262626404040403F404040E3
:10081000FF47474747FF2626FF80808080FF4040F4
:10082000FFC3C37EFFC3C37E7E83BBA3A387FF7EBC
:10083000F8FEFFFFFF999967FFFFFFFFFF99996699
:100840001F7FFFFFFF9999E600000000003E5B4F0D
:100850005B3E3E6B4F6B3E1C3E7C3E1C183C7E3C20
:10086000181C577D571C1C5E7F5E1C00183C18002E
:10087000FFE7C3E7FF0018241800FFE7DBE7FF30BE
:10088000483A060E2629792926407F050507407F2C
:1008900005253F5A3CE73C5A7F3E1C1C08081C1C9F
:1008A0003E7F14227F22145F5F005F5F06097F0195
:1008B0007F006689956A606060606094A2FFA29480
:1008C00008047E040810207E201008082A1C08084E
:1008D0001C2A08081E101010100C1E0C1E0C30389C
:1008E0003E3830060E3E0E06000000000000005F9D
:1008F00000000007000700147F147F14242A7F2AB9
:10090000122313086462364956205000080703007A
:10091000001C2241000041221C002A1C7F1C2A08C6
:10092000083E080800807030000808080808000029
:1009300060600020100804023E5149453E00427F9D
:10094000400072494949462141494D331814127FEC
:100950001027454545393C4A49493141211109078C
:100960003649494936464949291E0000140000000D
:1009700040340000000814224114141414140041DF
:1009800022140802015909063E415D594E7C12119C
:10099000127C7F494949363E414141227F414141D4
:1009A0003E7F494949417F090909013E414151734F
:1009B0007F0808087F00417F41002040413F017FC0
:1009C000081422417F404040407F021C027F7F0488
:1009D00008107F3E4141413E7F090909063E4151D1
:1009E000215E7F09192946264949493203017F01C1
:1009F000033F4040403F1F2040201F3F4038403FC2
:100A0000631408146303047804036159494D4300D7
:100A10007F4141410204081020004141417F04020E
:100A200001020440404040400003070800205454A5
:100A300078407F2844443838444444283844442883
:100A40007F385454541800087E090218A4A49C78D6
:100A50007F0804047800447D40002040403D007F32
:100A60001028440000417F40007C047804787C0812
:100A70000404783844444438FC18242418182424E6
:100A800018FC7C08040408485454542404043F44CB
:100A9000243C4040207C1C2040201C3C4030403CFA
:100AA00044281028444C9090907C4464544C44005A
:100AB00008364100000077000000413608000201BE
:100AC0000204023C2623263C1EA1A161123A4040AA
:100AD000207A385454555921555579412254547827
:100AE00042215554784020545579400C1E527212C0
:100AF0003955555559395454545939555454580049
:100B000000457C410002457D420001457C407D124C
:100B100011127DF0282528F07C54554500205454AE
:100B20007C547C0A097F4932494949323A44444459
:100B30003A324A4848303A4141217A3A4240207894
:100B4000009DA0A07D3D4242423D3D4040403D3C95
:100B500024FF2424487E4943662B2FFC2F2BFF09BA
:100B600029F620C0887E09032054547941000044AE
:100B70007D413048484A32384040227A007A0A0A99
:100B8000727D0D19317D2629292F2826292929260C
:100B900030484D4020380808080808080808382F51
:100BA00010C8ACBA2F102834FA00007B00000814DB
:100BB0002A142222142A14085500550055AA55AAB1
:100BC00055AAFF55FF55FF000000FF00101010FF51
:100BD00000141414FF001010FF00FF1010F010F0AC
:100BE000141414FC001414F700FF0000FF00FF149D
:100BF00014F404FC141417101F10101F101F1414E9
:100C0000141F00101010F0000000001F1010101032
:100C10001F10101010F010000000FF101010101026
:100C200010101010FF10000000FF140000FF00FF64
:100C300000001F10170000FC04F414141710171400
:100C400014F404F40000FF00F71414141414141422
:100C5000F700F7141414171410101F101F14141495
:100C6000F4141010F010F000001F101F0000001FFF
:100C700014000000FC140000F010F01010FF10FF32
:100C8000141414FF141010101F00000000F010FFC7
:100C9000FFFFFFFFF0F0F0F0F0FFFFFF00000000AB
:100CA00000FFFF0F0F0F0F0F3844443844FC4A4A2F
:100CB0004A347E02020606027E027E0263554941E4
:100CC000633844443C04407E201E2006027E02021B
:100CD00099A5E7A5991C2A492A1C4C7201724C302F
:100CE0004A4D4D303048784830BC625A463D3E4906
:100CF0004949007E0101017E2A2A2A2A2A44445FAA
:100D0000444440514A444040444A51400000FF019D
:100D100003E080FF000008086B6B083612362436AB
:100D2000060F090F06000018180000001010003010
:100D300040FF0101001F01011E00191D1712003C98
:100D40003C3C3C00000000000000000800020100E4
:100D50000003040700000000000000000102040876
:100D60001020408001020408102001020408102015
:100D70000404040404040404020202020202030341
:100D800003030303000000002300260029000000E5
:100D90000000250028002B00000000002400270090
:100DA0002A001416E42111241FBECFEFD8E0DEBFC5
:100DB000CDBF15E0A0E0B1E0E6E6F0E502C00590A9
:100DC0000D92A037B107D9F726E0A0E7B5E001C042
:100DD0001D92A43AB207E1F71DE0C6EADDE004C0C7
:100DE0002297FE010E94B025C23AD107C9F70E949E
:100DF000B5230C9431280C940000CF92DF92EF922F
:100E0000FF926B017C0120E030E0A9010E941125D6
:100E1000181674F020E030E0A901C701B6010E9465
:100E20002A2487FF0AC060E070E080E89FEB08C0DA
:100E300060E070E080E89FE303C060E070E0CB0119
:100E4000FF90EF90DF90CF900895CF92DF92FF92C6
:100E50000F931F93CF93DF93CDB7DEB728970FB6CD
:100E6000F894DEBF0FBECDBF48876F830E94142069
:100E70009A8389836F81862F0E9414209C838B83A1
:100E80004885842F0E9414209E838D83E6E7F5E039
:100E900089E7C82E85E0D82E4CE755E023E735E0FA
:100EA00080E795E0BE016F5F7F4FFF24F3941081D0
:100EB000112319F01082D901FC92D6011C91112343
:100EC00019F01C92DC01FC92DB010D911D91BD011A
:100ED000DA01012B59F4FC92D6011C92DC011C9220
:100EE000D9011C9111110CC0F0820AC01C92108211
:100EF000D9011C92DC011C91111102C0D601FC9297
:100F00003196BFEFCB1ADB0A4F5F5F4F2F5F3F4F2A
:100F10000196A5E0E937FA0751F628960FB6F8943E
:100F2000DEBF0FBECDBFDF91CF911F910F91FF901C
:100F3000DF90CF9008958F929F92AF92BF92CF9201
:100F4000DF92EF92FF920F931F93CF93DF93EC0109
:100F50008B0188809980AA80BB80FB01C080D180F2
:100F6000E280F3802085318542855385C701B60133
:100F70000E94C6239B01AC01C501B4010E942A2432
:100F800087FF39C0288539854A855B85C501B4014D
:100F90000E94C623A70196010E94112518165CF530
:100FA0008C809D80AE80BF80F801C480D580E680B3
:100FB000F7802485358546855785C701B6010E948F
:100FC000C6239B01AC01C501B4010E942A2487FFFE
:100FD00012C02C853D854E855F85C501B4010E94F8
:100FE000C623C1E0A70196010E94112518160CF036
:100FF000C0E08C2F01C080E0DF91CF911F910F9155
:10100000FF90EF90DF90CF90BF90AF909F908F9028
:1010100008952F923F924F925F926F927F928F929C
:101020009F92AF92BF92CF92DF92EF92FF920F9377
:101030001F93CF93DF93CDB7DEB7AC970FB6F8947D
:10104000DEBF0FBECDBF4B015C0129013A018E010D
:101050000F5E1F4F80E1D8011D928A95E9F780E06D
:1010600090E0A0E2B1E4898F9A8FAB8FBC8F80E0D3
:1010700090E0A0E8B1E48D8F9E8FAF8FB8A38091F0
:10108000B2059091B305A091B405B091B50589A3BF
:101090009AA3ABA3BCA38091060190910701A091F4
:1010A0000801B09109018DA39EA3AFA3B8A78091B9
:1010B000890590918A05A0918B05B0918C0589A72F
:1010C0009AA7ABA7BCA72DA13EA14FA158A569A186
:1010D0007AA18BA19CA10E94C623A50194010E9424
:1010E000C62329A53AA54BA55CA50E94C623698BFA
:1010F0007A8B8B8B9C8BC090B605D090B705E09017
:10110000B805F090B905A3019201C701B6010E948C
:10111000C6236D8B7E8B8F8B988F98E1292E95E05F
:10112000392EF1016591749180E090E00E945F2476
:1011300069837A838B839C83F101329665917491E4
:1011400080E090E00E945F246D837E838F83988788
:10115000F10134966591749180E090E00E945F24E3
:1011600069877A878B879C87F101369665917491A0
:1011700080E090E00E945F246D877E878F87988B48
:10118000BE016F5F7F4FC8010E949B07882309F44F
:10119000F9C020E030E0A901C501B4010E942A2471
:1011A000882309F472C060919E0570919F0580911B
:1011B000A0059091A1050E942E24882777FD809597
:1011C000982F0E9461246B017C0160939E057093AF
:1011D0009F058093A0059093A10569A17AA18BA199
:1011E0009CA10E942E24882777FD8095982F0E942D
:1011F00061246093B2057093B3058093B405909316
:10120000B505C701B6010E94FD066B017C01809007
:10121000B2059090B305A090B405B090B5052DA18E
:101220003EA14FA158A5C501B4010E94C62329A51E
:101230003AA54BA55CA50E94C623A70196010E9472
:10124000C623698B7A8B8B8B9C8BBE016F5F7F4F24
:10125000C8010E949B0781110FC0A7019601C5011B
:10126000B4010E94C6236093B2057093B3058093C6
:10127000B4059093B505CBCF10929E0510929F05B3
:101280001092A0051092A10586C020E030E0A901CF
:10129000C301B2010E942A24882309F473C060911B
:1012A0009A0570919B0580919C0590919D050E94E7
:1012B0002E24882777FD8095982F0E9461244B016A
:1012C0005C0160939A0570939B0580939C059093B5
:1012D0009D05C701B6010E942E24882777FD8095C1
:1012E000982F0E9461246093B6057093B705809390
:1012F000B8059093B90540908D0550908E0560908B
:101300008F0570909005C501B4010E94FD066B0128
:101310007C018090B6059090B705A090B805B0907C
:10132000B905A3019201C501B4010E94C623A7011A
:1013300096010E94C6236D8B7E8B8F8B988FBE018A
:101340006F5F7F4FCE0141960E949B0781110FC0B6
:10135000A7019601C501B4010E94C6236093B6059A
:101360007093B7058093B8059093B905D2CF1092CA
:101370009A0510929B0510929C0510929D05109263
:10138000980509C098E0290E311CA0E92A16A5E0AD
:101390003A0609F0C6CEAC960FB6F894DEBF0FBE83
:1013A000CDBFDF91CF911F910F91FF90EF90DF9014
:1013B000CF90BF90AF909F908F907F906F905F90F5
:1013C0004F903F902F900895EF92FF920F931F93AD
:1013D000CF93DF93CDB7DEB760970FB6F894DEBF3B
:1013E0000FBECDBF7C0108E115E0F8016591749155
:1013F00080E090E00E945F2469837A838B839C83E2
:10140000F80132966591749180E090E00E945F242B
:101410006D837E838F839887F801349665917491EC
:1014200080E090E00E945F2469877A878B879C87A1
:10143000F80136966591749180E090E00E945F24F7
:101440006D877E878F87988BBE016F5F7F4FC70147
:101450000E949B07882311F081E008C0085F1F4F9E
:1014600085E00039180709F0C0CF80E060960FB61C
:10147000F894DEBF0FBECDBFDF91CF911F910F91CA
:10148000FF90EF9008954F925F926F927F928F92AC
:101490009F92AF92BF92CF92DF92EF92FF920F9303
:1014A0001F93CF93DF93CDB7DEB760970FB6F89455
:1014B000DEBF0FBECDBFB42E2091BE053091BF055B
:1014C0002330310509F4C5C310929E0510929F0583
:1014D0001092A0051092A105882329F0611129C05E
:1014E00081E090E004C0662321F18FEF9FEF90939D
:1014F00021018093200160912001709121018827B2
:1015000077FD8095982F0E9461249B01AC0160912A
:1015100018017091190180911A0190911B010E948C
:10152000152560939E0570939F058093A005909369
:10153000A10560919E0570919F058091A0059091F5
:10154000A10520E030E0A9010E94090820919E0534
:1015500030919F054091A0055091A1056091AA0589
:101560007091AB058091AC059091AD050E94C623AA
:101570006093AA057093AB058093AC059093AD057D
:1015800080917F05909180058F3F2FEF920709F0A2
:1015900060C0C090B205D090B305E090B405F09063
:1015A000B50584ED95E00E94801C97FD0196BC0175
:1015B000759567956A507109882777FD8095982FF2
:1015C0000E9461249B01AC01C701B6010E94112554
:1015D00018162CF41092800510927F051AC02091E5
:1015E0009E0530919F054091A0055091A105609105
:1015F000B2057091B3058091B4059091B5050E9434
:10160000C6236093B2057093B3058093B40590939D
:10161000B50520E030E0A9016091B2057091B305F5
:101620008091B4059091B5050E942A2487FF75C06A
:101630001092B2051092B3051092B4051092B50540
:1016400010929E0510929F051092A0051092A10580
:1016500064C0019709F061C0C090B205D090B30595
:10166000E090B405F090B50584ED95E00E94801CF3
:1016700097FD0196BC01759567956A507109882799
:1016800077FD8095982F0E9461249B01AC01C701D2
:10169000B6010E942A2487FF05C01092800510928F
:1016A0007F051AC020919E0530919F054091A005AD
:1016B0005091A1056091B2057091B3058091B40578
:1016C0009091B5050E94C6236093B2057093B3054F
:1016D0008093B4059093B505C090B205D090B30542
:1016E000E090B405F090B50584ED95E00E94801C73
:1016F000BC01882777FD8095982F0E9461249B016B
:10170000AC01C701B6010E941125181634F485E614
:1017100090E0909323018093220180917F05909126
:101720008005892B09F0C8C0C0908905D0908A0532
:10173000E0908B05F0908C0520E030E0A901C70116
:10174000B6010E94112587FD1EC088EC95E00E941D
:10175000AB168C0184ED95E00E94801CB80143E03B
:10176000660F771F4A95E1F7681B790B80E090E0E0
:101770000E945F249B01AC01C701B6010E942A248C
:1017800018160CF030C3C0908905D0908A05E090FF
:101790008B05F0908C0588EC95E00E94AB168C01CF
:1017A00084ED95E00E94801CB80133E0660F771F3E
:1017B0003A95E1F7681B790B80E090E00E945F2486
:1017C0009B01AC01C701B6010E9411251816ECF56A
:1017D00081E090E09093800580937F0588EC95E010
:1017E0000E94AB168C0184ED95E00E94801CB8012C
:1017F00023E0660F771F2A95E1F7681B790B80E0DD
:1018000090E00E945F246093890570938A0580931D
:101810008B0590938C0520919E0530919F054091FA
:10182000A0055091A1056091B2057091B30580911A
:10183000B4059091B5050E94C6236093B2057093DC
:10184000B3058093B4059093B50520E030E0A9017D
:101850006091890570918A0580918B0590918C0526
:101860000E942A2487FF28C08FEF9FEF9093800566
:1018700080937F0520919E0530919F054091A005A2
:101880005091A1056091B2057091B3058091B405A6
:101890009091B5050E94C6236093B2057093B3057D
:1018A0008093B4059093B5051092890510928A052E
:1018B00010928B0510928C058E010F5F1F4F80E1F7
:1018C000F80111928A95E9F780E090E0A0E2B1E496
:1018D00089879A87AB87BC8780E090E0A0E8B1E475
:1018E0008D879E87AF87B88B2091B2053091B30565
:1018F0004091B4055091B5056091890570918A05B4
:1019000080918B0590918C050E94C6232091060141
:101910003091070140910801509109010E94C623AE
:1019200069837A838B839C832091B6053091B705B8
:101930004091B8055091B90560918D0570918E0563
:1019400080918F05909190050E94C62320E030E0A1
:1019500040E85FE30E94C6236D837E838F83988770
:10196000C8010E94E409811120C020911401309126
:101970001501409116015091170160919A057091DF
:101980009B0580919C0590919D050E94C6236093C4
:101990009A0570939B0580939C0590939D0581E02B
:1019A000809398058093990502C010929905C09084
:1019B0009A05D0909B05E0909C05F0909D0520E055
:1019C00030E0A901C701B6010E942A24882339F01A
:1019D000A701960160E070E0CB010E940908BB20DE
:1019E00009F18091980581111DC02091100130915D
:1019F0001101409112015091130160919A0570916B
:101A00009B0580919C0590919D050E94C523609344
:101A10009A0570939B0580939C0590939D0581E0AA
:101A20008093980580909A0590909B05A0909C05C6
:101A3000B0909D052091B6053091B7054091B8054D
:101A40005091B905C501B4010E94C6236B017C0108
:101A50006093B6057093B7058093B8059093B90568
:101A60002091AE053091AF054091B0055091B10580
:101A7000C501B4010E94C6232B013C016093AE0551
:101A80007093AF058093B0059093B10520E030E0EE
:101A9000A901C501B4010E942A2481113CC0809192
:101AA0009905811138C08091200190912101909376
:101AB0001F0180931E018091890590918A05A09154
:101AC0008B05B0918C058093810590938205A0933E
:101AD0008305B093840540928505509286056092F7
:101AE0008705709288058091B2059091B305A09109
:101AF000B405B091B5058093A2059093A305A0937A
:101B0000A405B093A505C092A605D092A705E092C2
:101B1000A805F092A90520918D0530918E05409180
:101B20008F0550919005C701B6010E94C6236B0135
:101B30007C0188EC95E00E94AF168C0188EC95E062
:101B40000E94B3169C01209FC001219F900D309FE1
:101B5000900D1124BC0180E090E00E945F249B0165
:101B6000AC01C701B6010E941125181664F48091DA
:101B7000BE059091BF05039731F083E090E090930C
:101B8000BF058093BE050091BE051091BF050330CF
:101B9000110509F443C120E030E0A90160919E05E0
:101BA00070919F058091A0059091A1050E942A2423
:101BB00020E030E0A901811114C060919A05709174
:101BC0009B0580919C0590919D050E942A2481117E
:101BD0001FC0012BE9F01092BF051092BE0581E0F5
:101BE00015C060919A0570919B0580919C0590911C
:101BF0009D050E942A2481110BC00130110541F07E
:101C000081E090E09093BF058093BE05809391059D
:101C100020E030E0A90160919A0570919B058091C8
:101C20009C0590919D050E942A24882309F4F6C002
:101C30008091BE059091BF05029709F4EFC082E044
:101C400090E09093BF058093BE0581E0809391055D
:101C5000E5C08091BA059091BB05A091BC05B091FB
:101C6000BD050196A11DB11D8E309105A105B105DF
:101C70004CF48093BA059093BB05A093BC05B09338
:101C8000BD05CCC01092BA051092BB051092BC05E0
:101C90001092BD0580911C0190911D0101979093B8
:101CA0001D0180931C01181619060CF095C020E048
:101CB00030E040E05EE36091A2057091A305809161
:101CC000A4059091A5050E94152520E030E040E094
:101CD00051E40E9415250E942E24882777FD8095C7
:101CE000982F0E9461246B017C016093B205709370
:101CF000B3058093B4059093B50520E030E040E053
:101D00005EE36091A6057091A7058091A80590916A
:101D1000A9050E94152520E030E040E051E40E9432
:101D200015250E942E24882777FD8095982F0E94E4
:101D300061246093B6057093B7058093B8059093BE
:101D4000B905C092AA05D092AB05E092AC05F0921D
:101D5000AD0520E030E040E05EE3609181057091E8
:101D6000820580918305909184050E94152520E0CD
:101D700030E040E051E40E9415250E942E2488277F
:101D800077FD8095982F0E94612460938905709358
:101D90008A0580938B0590938C0510928D05109287
:101DA0008E0510928F05109290051092BF0510922B
:101DB000BE0510929A0510929B0510929C051092F8
:101DC0009D0510929E0510929F051092A0051092FD
:101DD000A1051092980522C089E690E09093230116
:101DE000809322011BC020919E0530919F05409158
:101DF000A0055091A1056091890570918A05809197
:101E00008B0590918C050E94C62360938905709381
:101E10008A0580938B0590938C05B5CC60960FB6A0
:101E2000F894DEBF0FBECDBFDF91CF911F910F9110
:101E3000FF90EF90DF90CF90BF90AF909F908F90EA
:101E40007F906F905F904F9008958F929F92AF9286
:101E5000BF92CF92DF92EF92FF920F931F93CF9397
:101E6000DF9380919105A090BE05B090BF058823B7
:101E700099F1109297051092960510929205109282
:101E800093051092940510929505C5018D7F892BBD
:101E900059F410920A0110920B0110920C01109249
:101EA0000D0181E090E012C081E0A816B10491F428
:101EB0008DEC9CECACE4BFE380930A0190930B01A2
:101EC000A0930C01B0930D0184E090E090930F017A
:101ED00080930E011092910580900E0190900F0159
:101EE00082E0881691040CF440C020E030E046E91E
:101EF00052E460910A0170910B0180910C01909164
:101F00000D010E9415252091920530919305409175
:101F10009405509195050E94C62360939205709395
:101F20009305809394059093950520E030E046E971
:101F300052E40E9411251816C4F4809196059091E0
:101F400097050196909397058093960510929205B8
:101F50001092930510929405109295058815990595
:101F600024F01092970510929605A114B10441F443
:101F70008091200190912101019709F043C02DC06B
:101F800082E0A816B10449F48091200190912101CA
:101F90000197D9F5C0E1D6E03AC0AA94AB28B9F5CB
:101FA0002091200130912101809196059091970513
:101FB00021303105A9F48130910579F02CF4892B79
:101FC00031F5C0E5D6E023C08230910519F00397C2
:101FD00021F01DC0C0E3D6E01AC0C0E7D6E017C0AC
:101FE0008130910579F02CF4892B89F4C0EDD5E08E
:101FF0000EC08230910519F0039721F008C0C0EBA4
:10200000D5E005C0C0EFD5E002C0C0E9D5E06091E1
:10201000B6057091B7058091B8059091B9050E94F9
:102020002E244B015C016091B2057091B305809143
:10203000B4059091B5050E942E24CC24C394D12CD4
:10204000A0E1EA2EF12C00E110E09E01A40184ED54
:1020500095E00E945F19DF91CF911F910F91FF9042
:10206000EF90DF90CF90BF90AF909F908F900895AA
:10207000CF93DF93CDB7DEB762970FB6F894DEBF8C
:102080000FBECDBF60911C0170911D014AE0CE01D1
:102090000D960E9447236CE173E0CE0101960E94E9
:1020A000F922BE01635F7F4FCE0101960E949F23FC
:1020B000BC01CE0107960E942623CE0101960E9404
:1020C0008B2261E084ED95E00E946E1C40E050E0C0
:1020D00061E070E084ED95E00E947A1C40E050E001
:1020E00060E070E084ED95E00E94681CBE01695FCD
:1020F0007F4F84ED95E00E946522CE0107960E94F5
:102100008B22CE010D960E948B2262960FB6F89418
:10211000DEBF0FBECDBFDF91CF910895CF92DF928A
:10212000EF92FF920F931F9384ED95E00E947A1E29
:1021300061E084ED95E00E946E1C61E070E084ED4A
:1021400095E00E94741C84ED95E00E94841C8C0133
:1021500084ED95E00E94801CA80117FF02C04F5F2C
:102160005F4F8A01159507950C501109BC0188270E
:1021700077FD8095982F0E94612420E030E04CE9A3
:1021800052E40E94C52320E030E040E05FE30E947B
:1021900015250E942E24A80184ED95E00E94681C5C
:1021A0006EE173E084ED95E00E94732284ED95E08A
:1021B0000E94841C8C0184ED95E00E94801CA80183
:1021C00017FF02C04F5F5F4F8A01159507950450B6
:1021D0001109BC01882777FD8095982F0E94612402
:1021E00020E030E040E452E40E94C52320E030E0EB
:1021F00040E05FE30E9415250E942E24A80184ED93
:1022000095E00E94681C6CE273E084ED95E00E940A
:10221000732284ED95E00E94A71D0E94D81E609352
:10222000C0057093C1058093C2059093C3050091CA
:10223000C4051091C5052091C6053091C7056B01F5
:102240007C01C01AD10AE20AF30A45ECC41649E03F
:10225000D406E104F10490F06093C4057093C505C1
:102260008093C6059093C70584ED95E00E947A1E81
:1022700085E690E090932301809322011F910F91B6
:10228000FF90EF90DF90CF9008952F923F924F9262
:102290005F926F927F928F929F92AF92BF92CF92F6
:1022A000DF92EF92FF920F931F93CF93DF93CDB7FF
:1022B000DEB728970FB6F894DEBF0FBECDBF1886E5
:1022C0001F82612C712C812C912CA12CB12C212CE2
:1022D000312C18EA412E12E4512E80912201909166
:1022E00023018536910509F014C10E94D81E609320
:1022F000C0057093C1058093C2059093C3050091FA
:10230000C4051091C5052091C6053091C7056B0124
:102310007C01C01AD10AE20AF30A970186010C3443
:1023200011052105310508F4D9C06093C4057093E7
:10233000C5058093C6059093C70547E050E066E069
:1023400070E085E090E00E9425078114910421F55A
:1023500080917805882351F08FEFA81AB80A93E08E
:10236000A916B10474F0A12CB12C0BC08091760594
:10237000882339F081E0A81AB10818F4B2E0AB2E36
:10238000B12C80917705882339F083E090E098871D
:102390008F8388248394912C65E373E0CE010196AA
:1023A0000E94F92291E0A916B104A1F082E0A816DA
:1023B000B104E9F0A114B10431F56AE373E0CE0190
:1023C00001960E942F23212C312CF8EA4F2EF2E4A3
:1023D0005F2E19C069E473E0CE0101960E942F239D
:1023E000212C312CE4E84E2EE2E45E2E0CC065E593
:1023F00073E0CE0101960E942F23212C312C7CE921
:10240000472E72E4572E84ED95E00E947A1ECC246C
:10241000C394D12C68E1E62EF12C04E510E020E90C
:1024200036E040E050E060E070E084ED95E00E942E
:102430005F1961E084ED95E00E946E1C91E08916C1
:10244000910449F441E050E060E070E084ED95E0F3
:102450000E947A1C06C061E070E084ED95E00E9465
:10246000741C84ED95E00E94801CBC01882777FDD8
:102470008095982F0E946124A20191010E94C5239A
:1024800020E030E040E05FE30E9415250E942E240A
:1024900040E250E084ED95E00E94681CBE016F5F51
:1024A0007F4F84ED95E00E94652284ED95E00E94C7
:1024B000A71D8114910471F0CF80D884C614D7046D
:1024C00030F48FEF881A980A612C712C03C09FEFAB
:1024D000691A790ACE0101960E948B2283E0881640
:1024E000910409F0FACEA114B10421F447E6C42EF8
:1024F000D12C07C081E0A816B10441F436E6C32E02
:10250000D12CD0922301C0922201E7CE812C912CB4
:10251000E4CE28960FB6F894DEBF0FBECDBFDF9194
:10252000CF911F910F91FF90EF90DF90CF90BF90D0
:10253000AF909F908F907F906F905F904F903F9063
:102540002F900895CF92DF92EF92FF920F931F93F7
:10255000CF93DF93C0E0D0E005E610E08091220148
:10256000909123018636910509F0C2C00E94D81EC1
:102570006093C0057093C1058093C2059093C30515
:10258000C090C405D090C505E090C605F090C70581
:102590009B01AC012C193D094E095F0969017A01C3
:1025A0003CE4C316D104E104F104C0F26093C40515
:1025B0007093C5058093C6059093C70547E050E02A
:1025C00066E070E085E090E00E9425078091780544
:1025D000811107C080917705811103C08091760534
:1025E0008111219684ED95E00E947A1E61E084EDD0
:1025F00095E00E946E1C61E070E084ED95E00E9421
:10260000741C84ED95E00E94801CBC01882777FD36
:102610008095982F0E94612420E030E040E452E44D
:102620000E94C52320E030E040E05FE30E941525D2
:102630000E942E2440E050E084ED95E00E94681C4A
:10264000C230D10534F463E673E084ED95E00E9476
:10265000732248E050E060E070E084ED95E00E9475
:10266000681C209769F46CE673E084ED95E00E94A5
:10267000792268E773E084ED95E00E94792233C007
:10268000C130D10561F56EE973E084ED95E00E94FB
:10269000792284ED95E00E94801CBC01882777FD9B
:1026A0008095982F0E94612420E030E040E752E4BA
:1026B0000E94C52320E030E040E05FE30E94152542
:1026C0000E942E2440E250E084ED95E00E94681CB8
:1026D0006FEB73E084ED95E00E94732204C01093C9
:1026E00023010093220184ED95E00E94A71D36CFBF
:1026F000DF91CF911F910F91FF90EF90DF90CF90DE
:102700000895CF92DF92EF92FF920F931F93CF9392
:10271000DF93C8E6D0E080912201909123018736B3
:10272000910509F08FC084ED95E00E947A1EE0913A
:10273000D405F091D505C684D78484ED95E00E9438
:10274000841C8C0184ED95E00E94801CEE24E394AF
:10275000F12C9C0140E050E060E070E084ED95E0F9
:10276000F601099561E084ED95E00E946E1C41E060
:1027700050E060E070E084ED95E00E947A1C84ED0A
:1027800095E00E94841C6C0184ED95E00E94801C01
:102790008601D7FE02C00F5F1F4F159507950350A6
:1027A0001109BC01882777FD8095982F0E9461242C
:1027B00020E030E048E252E40E94C52320E030E00F
:1027C00040E05FE30E9415250E942E24A80184EDBD
:1027D00095E00E94681C6AEC73E084ED95E00E942D
:1027E000732284ED95E00E94A71D0E94D81E60937D
:1027F000C0057093C1058093C2059093C3050091F5
:10280000C4051091C5052091C6053091C7056B011F
:102810007C01C01AD10AE20AF30A4BECC41648E064
:10282000D406E104F10408F476CF6093C4057093F4
:10283000C5058093C6059093C705D0932301C09327
:10284000220169CFDF91CF911F910F91FF90EF90FF
:10285000DF90CF900895CF92DF92EF92FF920F9387
:102860001F93CF93DF93C5E6D0E080912201909132
:1028700023018936910509F08FC084ED95E00E940F
:102880007A1EE091D405F091D505C684D78484EDF5
:1028900095E00E94841C8C0184ED95E00E94801CD0
:1028A000EE24E394F12C9C0140E050E060E070E005
:1028B00084ED95E0F601099561E084ED95E00E94D4
:1028C0006E1C41E050E060E070E084ED95E00E9415
:1028D0007A1C84ED95E00E94841C6C0184ED95E0E7
:1028E0000E94801C8601D7FE02C00F5F1F4F159506
:1028F000079503501109BC01882777FD8095982F13
:102900000E94612420E030E048E552E40E94C523A3
:1029100020E030E040E05FE30E9415250E942E2475
:10292000A80184ED95E00E94681C62ED73E084EDDF
:1029300095E00E94732284ED95E00E94A71D0E94FD
:10294000D81E6093C0057093C1058093C205909313
:10295000C3050091C4051091C5052091C6053091AD
:10296000C7056B017C01C01AD10AE20AF30A49EBE0
:10297000C4164BE0D406E104F10408F476CF60936A
:10298000C4057093C5058093C6059093C705D09381
:102990002301C093220169CFDF91CF911F910F9145
:1029A000FF90EF90DF90CF9008951092BF051092A6
:1029B000BE0583E090E090931D0180931C0181E0AF
:1029C00090E090932101809320011092B205109223
:1029D000B3051092B4051092B50584ED95E00E9400
:1029E000841C4897BC01882777FD8095982F0E940A
:1029F00061246093B6057093B7058093B8059093F2
:102A0000B90510929A0510929B0510929C051092A0
:102A10009D0510929E0510929F051092A0051092A0
:102A2000A1051092890510928A0510928B051092CB
:102A30008C0510928D0510928E0510928F051092C4
:102A400090058FEF9FEF9093800580937F05109204
:102A500098050895CF92DF92EF92FF92CF93DF9384
:102A60000E94D514C5E6D0E0809122019091230107
:102A70008836910509F06EC00E94D81E6093C0058B
:102A80007093C1058093C2059093C305C090C4059F
:102A9000D090C505E090C605F090C7059B01AC013C
:102AA0002C193D094E095F0969017A013CE4C316FE
:102AB000D104E104F104C0F26093C4057093C5052C
:102AC0008093C6059093C70547E050E066E070E04C
:102AD00085E090E00E94250780917E05882361F0C3
:102AE00090917D05992341F090917C05992321F0E7
:102AF000D0932301C09322014091770560917C051A
:102B00000E94430A84ED95E00E947A1E60918D0533
:102B100070918E0580918F05909190050E942E24D2
:102B20006B017C016091890570918A0580918B050C
:102B300090918C050E942E24A60188EC95E00E94BD
:102B4000F4160E94250F0E94381084ED95E00E9433
:102B5000A71D8ACFDF91CF91FF90EF90DF90CF90AC
:102B6000089526E040E855E260E070E083E096E0FA
:102B70000E94202144E068E284ED95E00E94ED1D72
:102B800062E384ED95E00E94901D60E087E00E9482
:102B9000A51F61E087E00E94DE1F60E086E00E94E2
:102BA000A51F61E086E00E94DE1F60E085E00E94D4
:102BB000A51F61E085E00E94DE1F46E050E064E66C
:102BC00070E088EC95E00E94BB1664ED75E088EC3F
:102BD00095E00E94B71668E670E088EC95E00C94EA
:102BE000C116809122019091230186369105A1F0B2
:102BF00038F48436910561F08536910559F00895D1
:102C00008836910569F050F08936910559F008959C
:102C10000C948E100C9445110C94A2120C948113F8
:102C20000C942A150C942B14EF920F936CE0E62E63
:102C30000BE02AE049E068E084ED95E00E94F41C96
:102C400088EC95E00E949B1684ED95E00E94841C20
:102C50001092B2051092B3051092B4051092B5050A
:102C60004897BC01882777FD8095982F0E946124A2
:102C70006093B6057093B7058093B8059093B90536
:102C800084ED95E00E94841C1092AA051092AB0579
:102C90001092AC051092AD054897BC01882777FDCE
:102CA0008095982F0E9461246093AE057093AF05C4
:102CB0008093B0059093B10584ED95E00E94841C4B
:102CC0001092A2051092A3051092A4051092A505DA
:102CD0004897BC01882777FD8095982F0E94612432
:102CE0006093A6057093A7058093A8059093A90506
:102CF0001092890510928A0510928B0510928C050E
:102D000010928D0510928E0510928F0510929005ED
:102D1000109281051092820510928305109284050D
:102D200010928505109286051092870510928805ED
:102D30000F91EF900895FC0181E090E097838683E6
:102D40009187808788E090E0938382839583848352
:102D5000118210820895FC01868197810895FC01FB
:102D6000808591850895FC01848195810895FC01F9
:102D7000738762870895FC01778366835187408754
:102D80000895FC01718360830895CF92DF92EF92E2
:102D9000FF920F931F93CF93DF93FC01EA01A901E8
:102DA00062507109623A7105B0F4DB01AA0FBB1FD2
:102DB000A452BC4F2D913C912115310561F0E48066
:102DC000F58002811381CC24C394D12CBE0182856D
:102DD00093850E945F19DF91CF911F910F91FF9012
:102DE000EF90DF90CF9008954F925F926F927F9215
:102DF0008F929F92AF92BF92CF92DF92EF92FF920B
:102E00000F931F93CF93DF93EC013B016A016A811B
:102E10007B81C3010E947825562E472E6C817D81CF
:102E2000C6010E9478257B018A859B850E94841CAF
:102E30008601080F191F8A859B850E94801C6A8164
:102E40007B81860D971D860F971F0E9478255B0159
:102E50006C817D81C8010E9478254B017194619439
:102E60007108E814F9040CF03BC0052D142D0A1567
:102E70001B0594F52E813F81E29EC001E39E900DDB
:102E8000F29E900D1124800F911F880F991FE881E9
:102E9000F981E80FF91F6591749161157105C9F009
:102EA0008C819D81E89E9001E99E300DF89E300D49
:102EB00011242C0D3D1D8A819B81089FA001099F33
:102EC000500D189F500D1124460D571DCE010E9424
:102ED000C5160F5F1F4FCBCF8FEFE81AF80AC1CF8F
:102EE000DF91CF911F910F91FF90EF90DF90CF90E6
:102EF000BF90AF909F908F907F906F905F904F901A
:102F00000895CF93CFB7F8948091F905811127C028
:102F1000EAE7FDE08491E6E6FDE09491E82FF0E039
:102F2000EE0FFF1FE856F24FA591B4918C918923C3
:102F300021F461E08AE00E94DE1F61E08AE00E94E5
:102F4000A51F8CB580618CBD8CB580648CBD61E0A3
:102F50008DE00E94A51F61E08BE00E94A51F80917B
:102F6000F9058F5F8093F905CFBFCF9108952F9218
:102F70003F924F925F926F927F928F929F92AF9209
:102F8000BF92CF92DF92EF92FF920F931F93CF9356
:102F9000DF9300D000D0CDB7DEB74C017C836B83CC
:102FA0006A015901C8018701AC014C195D0957FF3D
:102FB00003C051954195510995016B817C81261B78
:102FC000370B37FF03C03195219531092224239413
:102FD000312C2417350714F0212C312C2114310405
:102FE00059F03A2D2B2D5C01832F922F3B812C81A0
:102FF000DC82CB82C32ED22EAB81BC81AA16BB064B
:103000005CF43C2D2D2D6C01832F922F3B812C8164
:10301000BC82AB82A32EB22E2501EB81FC814E1A1D
:103020005F0A3C016C187D0877FE03C071946194BF
:103030007108720157FE03C0FFEFEF1AFF0AF59403
:10304000E794C816D9062CF421E030E03A832983AE
:1030500024C06FEF7FEF7A8369831FC0D401ED91A5
:10306000FC910480F581E02D980121143104D9F000
:103070004B815C81B601C4010995E618F708F7FE9B
:1030800006C0E981FA81CE0EDF1EE40CF51C2B810F
:103090003C812F5F3F4F3C832B836B817C81A61645
:1030A000B706E4F604C0A6016B817C81E4CF0F90E3
:1030B0000F900F900F90DF91CF911F910F91FF9084
:1030C000EF90DF90CF90BF90AF909F908F907F90C8
:1030D0006F905F904F903F902F9008956F927F92E6
:1030E0008F929F92AF92BF92CF92DF92EF92FF9218
:1030F0000F931F93CF93DF93EC015B016A013901BA
:103100004801E881F9810284F385E02D8701099562
:10311000E881F981A601480D591D415051090284E9
:10312000F385E02D9301B501CE010995E881F98180
:103130000084F185E02D9401A601B501CE01099529
:10314000E881F981B501660D771D61507109008430
:10315000F185E02D9401A601CE010995DF91CF9173
:103160001F910F91FF90EF90DF90CF90BF90AF90A5
:103170009F908F907F906F900895EF92FF920F93A2
:103180001F93DC01ED91FC91240F351F2150310973
:103190000680F781E02D780189019B0109951F9137
:1031A0000F91FF90EF900895EF92FF920F931F936E
:1031B000DC01ED91FC91260F371F2150310906806B
:1031C000F781E02D78018A0109951F910F91FF90F9
:1031D000EF9008956F927F928F929F92AF92BF92DD
:1031E000CF92DF92EF92FF920F931F93CF93DF93D3
:1031F0005C014A0169013801EB01C60ED71ECC15EE
:10320000DD0574F4D501ED91FC910084F185E02D8C
:1032100087019301A401BE01C50109952196EFCF55
:10322000DF91CF911F910F91FF90EF90DF90CF90A2
:10323000BF90AF909F908F907F906F900895EF9286
:10324000FF920F931F93DC01ED91FC9111971A9659
:103250000D911C911B9718962D913C9119970684FE
:10326000F785E02D7B0140E050E060E070E00995DB
:103270001F910F91FF90EF9008950895FC01138224
:10328000128284E295E091838083758364835783FF
:1032900046837187608753874287158A158614860F
:1032A0001786168621E0248B8FEF9FEF938B828BFE
:1032B000918B808B268B178A118E108E08952F92FA
:1032C0003F924F925F926F927F929F92AF92BF9286
:1032D000CF92DF92EF92FF920F931F93CF93DF93E2
:1032E000CDB7DEB72A970FB6F894DEBF0FBECDBFBD
:1032F0005C017C836B835E834D831901270136015A
:10330000C801079697FD07969C0193E03595279590
:103310009A95E1F73A832983C12CD12CE12CF12C29
:10332000E414F5040CF044C01A8619868D819E8140
:103330008E0D9F1D98878F83E985FA85E017F10729
:103340007CF589859A8587709927892B11F0990CCE
:103350000EC0E985FA85F7FD379683E0F595E79588
:103360008A95E1F7EC0DFD1DE20DF31D949097FE9B
:1033700011C0D501ED91FC910480F581E02D930100
:103380004F8158856B817C8189859A85680F791F6B
:10339000C5010995A985BA851196BA87A987CCCFA9
:1033A000FFEFEF1AFF0A29813A81C20ED31EB8CF70
:1033B0002A960FB6F894DEBF0FBECDBFDF91CF9136
:1033C0001F910F91FF90EF90DF90CF90BF90AF9043
:1033D0009F907F906F905F904F903F902F900895B7
:1033E0002F923F924F925F926F927F928F929F9215
:1033F000AF92BF92CF92DF92EF92FF920F931F9303
:10340000CF93DF93CDB7DEB76A970FB6F894DEBFE0
:103410000FBECDBF1C0158874F831C870B87FA86D0
:10342000E986CC82DC0158964D915C915997411503
:10343000510509F0A6C018968D919C9119976817AF
:1034400079070CF056C11A968D919C911B97EF81CC
:10345000F885E817F9070CF04CC1D12CCB013C8161
:10346000F6E03F9F800D911D1124181619060CF0EF
:1034700040C1C60103E0880F991F0A95E1F74F810B
:103480005885840F951F181619060CF032C15796EF
:103490008C91811103C0203B08F02F5F7E876D87E0
:1034A0004B01198218E4A12E18E0B12EA61AB70A12
:1034B00055E0259FA00CB11C11248981853039F07D
:1034C000ED85FE85EA0DFB1D94919A8301C01A8259
:1034D0006F8078842301A8E0AD83BA81B0FF12C069
:1034E000D101ED91FC91BC81B13031F40480F581C2
:1034F000E02D2B853C8518C00684F785E02DEB84F4
:10350000FC841DC0E985FA852B853C85E217F3070D
:10351000E1F0D101ED91FC91BC81B13059F404800E
:10352000F581E02D29853A85A2016D857E85C10151
:1035300009950BC00684F785E02DE984FA8486019D
:103540009601A301B401C1010995EA81E695EA83D8
:10355000FD81F150FD836C0C7D1C2FEF421A520A45
:10356000F111BBCF39813F5F39838C0C9D1C4D8598
:103570005E854F5F5F4F5E874D87363009F09DCF88
:10358000B8C0FA0134963491329785919491231BF7
:10359000A7E02A9F800D911D1124FA0125913491F5
:1035A000398B288BFC01459154915A8F498FFC012E
:1035B0003296549159873196A491AF873196E49110
:1035C000FC013596249131968491BC81B23050F043
:1035D000622E772467FC7094E82FFF27E7FDF095B3
:1035E000FE87ED87FC81CF2ED12C6C9C40016D9C19
:1035F000900C7C9C900C1124860E971EA12C198295
:10360000DE8ACD8AAB01420F511D27FD5A955E839C
:103610004D83AF81B885A80FB11D87FDBA95B88FCE
:10362000AF8B59818F85581708F063C0852F90E0C4
:103630002D853E85280F391F2C9DD0012D9DB00D65
:103640003C9DB00D1124EF81F885EA0FFB1FFB8331
:10365000EA836D807E802401FA2D2D81F21BFA8B86
:103660004F89588D480F591F5C8B4B8B9A89960D4B
:10367000862D2D81821B39858317B0F5977061F4F3
:10368000898D9A8D0196E889F989298D3A8DE20F05
:10369000F31FB4909A8F898FB7FE1DC0D101ED91B1
:1036A000FC91BC81B13059F40480F581E02D2B856B
:1036B0003C854B895C89B301C10109950CC0068426
:1036C000F785E02DEB84FC84860196014A815B81BD
:1036D000B201C1010995BB0CED89FE894E0E5F1E3A
:1036E000FFEF6F1A7F0AC2CFA30E49814F5F498354
:1036F00098CF6A960FB6F894DEBF0FBECDBFDF91AC
:10370000CF911F910F91FF90EF90DF90CF90BF90DE
:10371000AF909F908F907F906F905F904F903F9071
:103720002F900895AF92BF92CF92EF92FF920F9396
:103730001F93CF93DF93EC01262F888D998D0097EF
:1037400009F042C06A3069F42C898E859F8538E083
:10375000239F800D911D11249F878E871D861C86B7
:10376000ABC06D3009F4A8C08E898823C1F03C89B4
:103770008C859D8546E0349F800D911D11244885E0
:103780005985841795075CF01D861C868E859F855C
:10379000E8E03E9F800D911D11249F878E87EA8867
:1037A000FB88088919894E855F856C857D85CC8865
:1037B000CE010E94F0192C898C859D85F6E02F9F03
:1037C000800D911D112441C06A3079F41D861C863C
:1037D0004C89FC01369684912E853F85489F200DAB
:1037E000311D11243F872E8767C06D3009F464C0F6
:1037F000AC014C5F5F4FFA013491631708F45CC071
:103800003196E491E61708F457C0FA014491362F37
:10381000341BFC013296A590B490F7E03F9FA00CBA
:10382000B11C1124F5013296A4913196E491AA239A
:1038300011F0E1110DC0F5013496A4902C898C850E
:103840009D85A29E800D911D11249D878C8734C07B
:10385000F5013596E4913E89332309F13C89B0E0C6
:10386000AE0FB11DE7FDBA953A9FA0013B9F500DE9
:1038700011246C857D85460F571F6885798546170D
:1038800057076CF01D861C86FC01369684914E8588
:103890005F85389F400D511D11245F874E87EA8850
:1038A000FB88088919894E855F856C857D85CC8864
:1038B000CE010E94F019BFCF81E090E0DF91CF915F
:1038C0001F910F91FF90EF90CF90BF90AF90089510
:1038D000FC0175876487578746870895611101C089
:1038E00061E0FC01648B0895FC01738B628B718B2A
:1038F000608B0895FC01718B608B538B428B089514
:10390000FC01808591850895FC0182859385089549
:10391000FC0177FD68C080859185681779070CF0F8
:1039200062C057FD60C082859385481759070CF027
:103930005AC08589823059F08330B1F08130D1F49A
:103940008FE290E0861B970BBA01AC0113C083E5B0
:1039500090E0FC01E61BF70BBF018FE290E0FC0159
:10396000E41BF50BAF0106C083E590E0841B950BCB
:10397000AB01BC0164357105B0F54033510598F5D4
:10398000CA01E3E095958795EA95E1F747705527D9
:10399000232BA1F024E5289FF001299FF00D11248D
:1039A000E60FF71FEC5DFE4F81E090E0042E01C0B2
:1039B000880F0A94EAF79081982B14C024E5289F79
:1039C000F001299FF00D1124E60FF71FEC5DFE4F6B
:1039D00081E090E0042E01C0880F0A94EAF78095F8
:1039E0009081982390830895CF92DF92EF92FF9277
:1039F0000F931F93CF93DF931F92CDB7DEB76C0168
:103A0000162FF42E40E350E064E570E029830E9415
:103A10003E198CE395E0F60191838083F28E138F3B
:103A20002981248FE58E068F0F90DF91CF911F9112
:103A30000F91FF90EF90DF90CF900895FC01828D61
:103A40008F3F21F481E0938D9F3F09F080E008953E
:103A50000F931F93CF93DF931F92CDB7DEB78C01E7
:103A600069830E941E1D6981882339F06EBD0000A4
:103A70000DB407FEFDCF8EB52DC088E090E030E894
:103A8000D8019196ED91FC919297408194962C915A
:103A900094972095242320835F96ED91FC91909735
:103AA00093962C91432F462321F04081422B408353
:103AB00004C04081209524232083D8019196ED9164
:103AC000FC919297208194964C91242B20833695DB
:103AD0000197B1F60F90DF91CF911F910F9108954B
:103AE0001F93CF93DF93EC01162F60E08C8D0E9423
:103AF000DE1F8E8D18161CF460E00E94DE1F612F01
:103B0000CE010E94281D8E8D181634F461E0DF91DD
:103B1000CF911F910C94DE1FDF91CF911F910895DB
:103B20001F93CF93DF93EC01162F67FD1FE761E230
:103B3000CE010E94701D612F6068CE010E94701D31
:103B400060E2CE01DF91CF911F910C94701DDF9246
:103B5000EF92FF920F931F93CF93DF93EC01F4E268
:103B6000EF2EF1E0FF2ED12C6D2D6064CE010E946E
:103B7000701D60E8CE010E94701D61E08C8D0E9476
:103B8000DE1F8E8D18161CF460E00E94DE1F00E020
:103B900010E0F701E00FF11F6081CE010E94281DA7
:103BA0000F5F1F4F04351105A1F78E8D18161CF4F9
:103BB00061E00E94DE1FD39484E5E80EF11C86E0EC
:103BC000D812D2CF60E4CE01DF91CF911F910F9137
:103BD000FF90EF90DF900C94701D0F931F93CF9385
:103BE000DF93EC01162F042F0E941E1D882379F00D
:103BF0000E9481178CB58C7F8CBD8DB58E7F8DBD5D
:103C00008CB5837F8CBD8CB58F7D8CBD34C061E05D
:103C10008A8D0E94A51F61E08B8D0E94A51F8B8D50
:103C2000992787FD9095FC01E059F24FE491F0E06F
:103C3000EE0FFF1FE257F24F259134913AA329A3CB
:103C4000FC01E45AF24F84918CA38A8D992787FD59
:103C50009095FC01E059F24FE491F0E0EE0FFF1F68
:103C6000E257F24F2591349138A32F8FFC01E45A8B
:103C7000F24F84918BA361E08C8D0E94A51F8D8DE6
:103C800018161CF461E00E94A51F8E8D18161CF4F6
:103C900061E00E94A51F8D8D18166CF460E00E94F3
:103CA000DE1F64EF71E080E090E00E94071F61E09A
:103CB0008D8D0E94DE1F61E2CE010E94701D602F7B
:103CC0006061CE010E94701D17FD1FE7612F6068C3
:103CD000CE010E94701D60E2CE010E94701D6CE05A
:103CE000CE010E94701DCE01DF91CF911F910F91E7
:103CF0000C94A71D28EF31E0E4E2F1E0DF01A90117
:103D00001D9241505040E1F7DC011D961C921E921D
:103D10001C971F961C921E921E9708951F920F9239
:103D20000FB60F9211242F933F938F939F93AF93CE
:103D3000BF938091FB059091FC05A091FD05B0918A
:103D4000FE053091FA0523E0230F2D3720F401966C
:103D5000A11DB11D05C026E8230F0296A11DB11DAE
:103D60002093FA058093FB059093FC05A093FD0535
:103D7000B093FE058091FF0590910006A091010689
:103D8000B09102060196A11DB11D8093FF0590938D
:103D90000006A0930106B0930206BF91AF919F91D8
:103DA0008F913F912F910F900FBE0F901F901895FC
:103DB0002FB7F8946091FB057091FC058091FD058B
:103DC0009091FE052FBF08953FB7F8948091FF05AD
:103DD00090910006A0910106B091020626B5A89B1D
:103DE00005C02F3F19F00196A11DB11D3FBF6627E9
:103DF000782F892F9A2F620F711D811D911D42E02E
:103E0000660F771F881F991F4A95D1F708958F92E3
:103E10009F92AF92BF92CF92DF92EF92FF926B018F
:103E20007C010E94E41E4B015C01C114D104E10439
:103E3000F104F1F00E94C4230E94E41E681979097C
:103E40008A099B09683E73408105910570F321E062
:103E5000C21AD108E108F10888EE880E83E0981EA6
:103E6000A11CB11CC114D104E104F10429F7DDCF78
:103E7000FF90EF90DF90CF90BF90AF909F908F908A
:103E80000895789484B5826084BD84B5816084BDD2
:103E900085B5826085BD85B5816085BDEEE6F0E0C3
:103EA000808181608083E1E8F0E01082808182601F
:103EB0008083808181608083E0E8F0E080818160A0
:103EC0008083E1EBF0E0808184608083E0EBF0E0D0
:103ED000808181608083EAE7F0E080818460808374
:103EE000808182608083808181608083808180681E
:103EF00080831092C1000895833081F028F48130CE
:103F000099F08230A1F008958730A9F08830B9F097
:103F10008430D1F4809180008F7D03C08091800037
:103F20008F7780938000089584B58F7702C084B521
:103F30008F7D84BD08958091B0008F7703C08091FC
:103F4000B0008F7D8093B0000895CF93DF9390E011
:103F5000FC01E45AF24F2491FC01E059F24F8491A4
:103F6000882349F190E0880F991FFC01E856F24F31
:103F7000A591B4918257924FFC01C591D4919FB7FE
:103F8000611108C0F8948C91209582238C938881CC
:103F900082230AC0623051F4F8948C91322F30950C
:103FA00083238C938881822B888304C0F8948C911E
:103FB000822B8C939FBFDF91CF9108950F931F9316
:103FC000CF93DF931F92CDB7DEB7282F30E0F901F2
:103FD000E85BF24F8491F901E45AF24F1491F90130
:103FE000E059F24F04910023C9F0882321F069833E
:103FF0000E947C1F6981E02FF0E0EE0FFF1FE25767
:10400000F24FA591B4919FB7F8948C91611103C0C0
:104010001095812301C0812B8C939FBF0F90DF915E
:10402000CF911F910F910895CF93DF93282F30E008
:10403000F901E85BF24F8491F901E45AF24FD4910F
:10404000F901E059F24FC491CC2391F081110E9403
:104050007C1FEC2FF0E0EE0FFF1FEC57F24FA59105
:10406000B4912C912D2381E090E021F480E002C0F6
:1040700080E090E0DF91CF910895FC01818D228D49
:1040800090E0805C9F4F821B91098F739927089560
:10409000FC01918D828D981731F0828DE80FF11D12
:1040A000858D90E008958FEF9FEF0895FC01918D2D
:1040B000828D981761F0828DDF01A80FB11D5D968A
:1040C0008C91928D9F5F9F73928F90E008958FEFF8
:1040D0009FEF08958AED91E2892B49F080E090E00E
:1040E000892B29F00E94DA2181110C940000089597
:1040F000FC01848DDF01A80FB11DA35ABF4F2C9185
:10410000848D90E001968F739927848FA689B78953
:104110002C93A089B1898C9180648C93938D848D2C
:10412000981306C00288F389E02D80818F7D8083FB
:104130000895CF93DF93EC01888D8823C9F0EA8935
:10414000FB89808185FD05C0A889B9898C9186FD90
:104150000FC00FB607FCF5CF808185FFF2CFA8898D
:10416000B9898C9185FFEDCFCE010E947820E7CFF1
:10417000DF91CF910895CF92DF92FF920F931F931B
:10418000CF93DF931F92CDB7DEB76C0181E0D601EC
:1041900058968C9358975B969C915B975C968C9104
:1041A0005C97981307C05096ED91FC9151978081D0
:1041B00085FD2EC0F601038D10E00F5F1F4F0F73BA
:1041C0001127F02EF601848DF81211C00FB607FCEE
:1041D000F9CFD6015096ED91FC915197808185FFE2
:1041E000F1CFC60169830E9478206981EBCF838D6E
:1041F000E80FF11DE35AFF4F6083D6015B960C93E5
:104200005B975296ED91FC915397808180620CC030
:10421000D6015696ED91FC91579760835096ED919B
:10422000FC91519780818064808381E090E00F90C1
:10423000DF91CF911F910F91FF90DF90CF90089564
:10424000BF92CF92DF92EF92FF92CF93DF93EC0178
:104250006A017B01B22EE889F98982E080834115E9
:1042600081EE580761057105A1F060E079E08DE30A
:1042700090E0A70196010E948C2521503109410947
:1042800051095695479537952795211580E13807AF
:1042900098F0E889F989108260E874E88EE190E08E
:1042A000A70196010E948C2521503109410951092D
:1042B0005695479537952795EC85FD853083EE8596
:1042C000FF852083188EEC89FD89B082EA89FB89FD
:1042D000808180618083EA89FB8980818860808316
:1042E000EA89FB89808180688083EA89FB898081F3
:1042F0008F7D8083DF91CF91FF90EF90DF90CF9003
:10430000BF9008951F920F920FB60F9211242F9312
:104310008F939F93EF93FF93E0911306F091140610
:104320008081E0911906F0911A0682FD12C09081F9
:1043300080911C068F5F8F7320911D06821751F0AC
:10434000E0911C06F0E0ED5FF94F958F80931C061D
:1043500001C08081FF91EF919F918F912F910F90DC
:104360000FBE0F901F9018951F920F920FB60F92CD
:1043700011242F933F934F935F936F937F938F936A
:104380009F93AF93BF93EF93FF9383E096E00E94D8
:104390007820FF91EF91BF91AF919F918F917F9185
:1043A0006F915F914F913F912F910F900FBE0F90A2
:1043B0001F90189583E096E00E943D2021E0892B14
:1043C00009F420E0822F0895109206061092050647
:1043D00088EE93E0A0E0B0E0809307069093080693
:1043E000A0930906B0930A0684E595E0909304062D
:1043F0008093030685EC90E09093100680930F065F
:1044000084EC90E0909312068093110680EC90E08B
:10441000909314068093130681EC90E09093160617
:104420008093150682EC90E090931806809317060F
:1044300086EC90E090931A068093190610921C0661
:1044400010921D0610921E0610921F060895CF921C
:10445000DF92EF92FF920F931F93CF93DF937C0134
:104460006A01EB0100E010E00C151D0571F0699187
:10447000D701ED91FC910190F081E02DC7010995E4
:10448000892B19F00F5F1F4FEFCFC801DF91CF913C
:104490001F910F91FF90EF90DF90CF9008956115DD
:1044A000710581F0DB010D900020E9F7AD0141506D
:1044B0005109461B570BDC01ED91FC910280F38101
:1044C000E02D099480E090E00895DC01ED91FC91ED
:1044D000DB0114964D915C9115976D917C91028052
:1044E000F381E02D09940C944F2260E675E00C9462
:1044F0004F220F931F93CF93DF93EC010E944F2223
:104500008C01CE010E947522800F911FDF91CF9107
:104510001F910F910895FC01808191810C944C268C
:10452000CF93DF93EC0188819981009711F00E946D
:104530004C26198218821D821C821B821A82DF91EE
:10454000CF9108950F931F93CF93DF93EC018B01CD
:104550006F5F7F4F888199810E94DB26009731F041
:10456000998388831B830A8381E001C080E0DF9107
:10457000CF911F910F910895CF93DF93EC01888124
:104580009981892B29F08A819B818617970760F48E
:10459000CE010E94A222882341F08C819D81892B2B
:1045A00019F4E881F981108281E0DF91CF910895BB
:1045B000EF92FF920F931F93CF93DF93EC017B0158
:1045C0008A01BA010E94BC22811104C0CE010E945E
:1045D000902207C01D830C83B701888199810E94B6
:1045E000B327CE01DF91CF911F910F91FF90EF90F4
:1045F0000895FC01118210821382128215821482A6
:104600006115710559F0FB0101900020E9F7AF0138
:1046100041505109461B570B0C94D8220895CF9353
:10462000DF93EC01FB018617970761F060817181D0
:104630006115710529F0448155810E94D82202C07C
:104640000E949022CE01DF91CF910895FC0111824A
:10465000108213821282158214820C940F23CF933E
:10466000DF93EC016115710561F0FB010190002001
:10467000E9F7AF0141505109461B570B0E94D82260
:1046800002C00E949022CE01DF91CF9108950F9336
:104690001F93CF93DF93CDB7DEB762970FB6F89431
:1046A000DEBF0FBECDBF8C01CB01F801118210829D
:1046B000138212821582148250E0BE016F5F7F4F19
:1046C0000E94BA27BE016F5F7F4FC8010E942F234F
:1046D00062960FB6F894DEBF0FBECDBFDF91CF91CB
:1046E0001F910F910895EF92FF920F931F93CF9315
:1046F000DF93EC017B010C811D816115710511F4C3
:1047000080E016C04115510591F0040F151FB80146
:104710000E94BC228823A1F3288139818C819D814C
:10472000B701820F931F0E94B3271D830C8381E082
:10473000DF91CF911F910F91FF90EF900895CF934C
:10474000DF93EC01FB0144815581608171810E94FE
:104750007323811103C0CE010E949022CE01DF910C
:10476000CF9108950E94A52708950E94411F0E949D
:10477000B4230E94B115CAE6D0E20E94F115209739
:10478000E1F30E946A20F9CF08955058BB27AA2769
:104790000ED00DC1FED030F003D120F031F49F3F98
:1047A00011F41EF4F3C00EF4E095E7FBE9C0E92F25
:1047B0000FD180F3BA17620773078407950718F0C3
:1047C00071F49EF527C10EF4E0950B2EBA2FA02DA3
:1047D0000B01B90190010C01CA01A0011124FF27AE
:1047E000591B99F0593F50F4503E68F11A16F040A9
:1047F000A22F232F342F4427585FF3CF46953795A8
:104800002795A795F0405395C9F77EF41F16BA0B6C
:10481000620B730B840BBAF09150A1F0FF0FBB1F1A
:10482000661F771F881FC2F70EC0BA0F621F731F63
:10483000841F48F4879577956795B795F7959E3FC0
:1048400008F0B3CF9395880F08F09927EE0F97954E
:104850008795089571D008F481E0089504D0689494
:10486000B111D9C00895BCD088F09F5790F0B92FEE
:104870009927B751A0F0D1F0660F771F881F991FB5
:104880001AF0BA95C9F712C0B13081F0C3D0B1E0C7
:104890000895C0C0672F782F8827B85F39F0B93FD7
:1048A000CCF3869577956795B395D9F73EF49095B7
:1048B0008095709561957F4F8F4F9F4F0895E89435
:1048C00009C097FB3EF490958095709561957F4F58
:1048D0008F4F9F4F9923A9F0F92F96E9BB27939506
:1048E000F695879577956795B795F111F8CFFAF416
:1048F000BB0F11F460FF1BC06F5F7F4F8F4F9F4F47
:1049000016C0882311F096E911C0772321F09EE8A4
:10491000872F762F05C0662371F096E8862F70E00A
:1049200060E02AF09A95660F771F881FDAF7880FE4
:104930009695879597F90895990F0008550FAA0B3A
:10494000E0E8FEEF16161706E807F907C0F01216A2
:104950001306E407F50798F0621B730B840B950BA5
:1049600039F40A2661F0232B242B252B21F40895FA
:104970000A2609F4A140A6958FEF811D811D089597
:1049800097F99F6780E870E060E008959FEF80EC02
:10499000089500240A9416161706180609060895A5
:1049A00000240A9412161306140605060895092E0B
:1049B0000394000C11F4882352F0BB0F40F4BF2B7A
:1049C00011F460FF04C06F5F7F4F8F4F9F4F0895BA
:1049D00057FD9058440F551F59F05F3F71F04795B0
:1049E000880F97FB991F61F09F3F79F08795089595
:1049F000121613061406551FF2CF4695F1DF08C0B4
:104A0000161617061806991FF1CF869571056105D0
:104A100008940895E894BB2766277727CB0197F978
:104A200008958ADF08F48FEF08950BD0C0CFB1DF6F
:104A300028F0B6DF18F0952309F0A2CFA7CF1124F4
:104A4000EACFC6DFA0F3959FD1F3950F50E0551F35
:104A5000629FF001729FBB27F00DB11D639FAA27D3
:104A6000F00DB11DAA1F649F6627B00DA11D661F22
:104A7000829F2227B00DA11D621F739FB00DA11D43
:104A8000621F839FA00D611D221F749F3327A00DFD
:104A9000611D231F849F600D211D822F762F6A2F99
:104AA00011249F5750408AF0E1F088234AF0EE0F1E
:104AB000FF1FBB1F661F771F881F91505040A9F72B
:104AC0009E3F510570F05CCFA6CF5F3FECF3983E60
:104AD000DCF3869577956795B795F795E7959F5F92
:104AE000C1F7FE2B880F911D9695879597F908952C
:104AF000AA1BBB1B51E107C0AA1FBB1FA617B70704
:104B000010F0A61BB70B881F991F5A95A9F780951F
:104B10009095BC01CD010895A1E21A2EAA1BBB1BE2
:104B2000FD010DC0AA1FBB1FEE1FFF1FA217B30779
:104B3000E407F50720F0A21BB30BE40BF50B661F8F
:104B4000771F881F991F1A9469F760957095809553
:104B500090959B01AC01BD01CF010895EE0FFF1FA1
:104B60000590F491E02D0994CF93DF938230910565
:104B700010F482E090E0E091A206F091A30620E01C
:104B800030E0A0E0B0E0309739F140815181481722
:104B90005907B8F04817590771F48281938110972B
:104BA00029F013969C938E9312972CC09093A30692
:104BB0008093A20627C02115310531F04217530713
:104BC00018F0A901DB0101C0EF019A01BD01DF016D
:104BD0000280F381E02DD7CF21153105F9F0281B94
:104BE000390B2430310580F48A819B816115710570
:104BF00021F0FB019383828304C09093A3068093EA
:104C0000A206FE01329644C0FE01E20FF31F81931B
:104C1000919322503109398328833AC02091A0060C
:104C20003091A106232B41F4209102013091030120
:104C30003093A1062093A00620910001309101013C
:104C40002115310541F42DB73EB740910401509133
:104C50000501241B350BE091A006F091A106E21797
:104C6000F307A0F42E1B3F0B2817390778F0AC018F
:104C70004E5F5F4F2417350748F04E0F5F1F50936C
:104C8000A1064093A0068193919302C0E0E0F0E07A
:104C9000CF01DF91CF910895CF93DF93009709F46F
:104CA00087C0FC01329713821282C091A206D09174
:104CB000A306209781F420813181280F391F80912C
:104CC000A0069091A1068217930779F5F093A106AB
:104CD000E093A0066DC0DE0120E030E0AE17BF0714
:104CE00050F412964D915C9113979D014115510519
:104CF00009F1DA01F3CFB383A28340815181840F9C
:104D0000951F8A179B0771F48D919C911197840FC1
:104D1000951F02969183808312968D919C91139793
:104D2000938382832115310529F4F093A306E09340
:104D3000A2063EC0D9011396FC93EE9312974D91B3
:104D40005D91A40FB51FEA17FB0779F4808191816B
:104D5000840F951F0296D90111969C938E938281A0
:104D6000938113969C938E931297E0E0F0E08A81F2
:104D70009B81009719F0FE01EC01F9CFCE0102965C
:104D800028813981820F931F2091A0063091A106BE
:104D90002817390769F4309729F41092A306109266
:104DA000A20602C013821282D093A106C093A0066D
:104DB000DF91CF910895A0E0B0E0E1EEF6E20C942F
:104DC000FE27EC01CB01209719F40E94B425B8C04E
:104DD000FE01E60FF71F9E0122503109E217F3078B
:104DE00008F4ACC0D9010D911C9111970617170753
:104DF000B8F00530110508F49FC0A80144505109CE
:104E00004617570708F498C002501109061B170BE4
:104E1000019311936D937C93CF010E944C268CC01B
:104E20005B01A01AB10A4E01800E911EA091A2064C
:104E3000B091A306612C712C60E070E0109709F42A
:104E400049C0A815B905C9F5ED90FC901197670107
:104E500042E0C40ED11CCA14DB0478F147018A1861
:104E60009B08640142E0C40ED11C1296BC901297BC
:104E70001396AC91B5E0CB16D10440F0B282A38377
:104E800091828082D9018D939C9309C00E5F1F4F40
:104E90000E0D1F1DF90111830083EB2DFA2F6115F3
:104EA000710531F0DB011396FC93EE93129744C029
:104EB000F093A306E093A2063FC06D917C911197F9
:104EC0006616770608F43B01BD0112960D90BC9161
:104ED000A02DB4CF6091A0067091A1066815790548
:104EE000E9F468167906D0F440910001509101016F
:104EF0004115510541F44DB75EB7609104017091C1
:104F00000501461B570BE417F507C0F4F093A10603
:104F1000E093A006F901918380830EC00E94B4251E
:104F20007C01009759F0A801BE010E94AA27CE017A
:104F30000E944C26C70104C0CE0102C080E090E070
:104F4000CDB7DEB7EEE00C941A2881E090E0F8943B
:104F50000C943128FB01DC0102C001900D924150FC
:104F60005040D8F70895FB01DC0101900D9200201C
:104F7000E1F708954532510520F4423010F00C94C9
:104F8000C527FB011082CB010895BB274A3031F4BD
:104F9000992322F4BDE2909581959F4F0C94D127DF
:104FA000BB27FB015527AA27880F991FAA1FA41703
:104FB00010F0A41B83955051B9F7A05DAA3308F0F7
:104FC000A95DA193009779F7B111B1931192CB012B
:104FD0000C94EA27DC01FC01672F71917723E1F73C
:104FE000329704C07C916D9370836291AE17BF07B6
:104FF000C8F308952F923F924F925F926F927F92E3
:105000008F929F92AF92BF92CF92DF92EF92FF92D8
:105010000F931F93CF93DF93CDB7DEB7CA1BDB0B84
:105020000FB6F894DEBF0FBECDBF09942A88398829
:1050300048885F846E847D848C849B84AA84B98430
:10504000C884DF80EE80FD800C811B81AA81B9813C
:10505000CE0FD11D0FB6F894DEBF0FBECDBFED0150
:065060000895F894FFCF53
:105066000000A4068000000040400000803F0400CD
:10507600000080409A99193F00004040030001005B
:1050860001006400000000000000000000000000B5
:10509600000000000000000000000000000000000A
:1050A60000000000000000000000C0E0F0F8FCFC7A
:1050B600FEFFFCE000000000000000000000000011
:1050C60000000000000000000000000000000000DA
:1050D60000000000000000000000000000000000CA
:1050E600000000000000000000F8F8F8F8F8F8F8F2
:1050F600F8F8F8F8F8F0F0E0E0C080C0FCFFFFFF39
:10510600FF7F3F7FFFFFFFFFFF0000000000000062
:105116000000000000000000000000000000000089
:105126000000000000000000000000000000000079
:1051360000000000000000000000000000000F1F3B
:105146003F7FFFFFFFFFFFFFFFFFE7C7C7878F9F79
:105156009FFFFFFFC1C0E0FCFFFFFFFFFFFCFCFC61
:10516600FCFEFEFEFCFCF8F8F0E0C0C0000000000B
:105176000000000000000000000000000000000029
:105186000000000000000000000000000000000019
:10519600000000000080C0E0F1FBFFFFFFFFFF7F83
:1051A6001F0F0F87E7FFFFFF1F1F3FF9F8F8F8F8FB
:1051B600F8F8FDFFFFFFFFFFFFFFFFFF7F3F0F0731
:1051C60001000000000000000000000000000000D8
:1051D60000000000000000000000000000000000C9
:1051E60000000000000000F0FEFFFFFFFFFFFFFFD2
:1051F600FFFFFFFE7E3F3F0F1FFFFFFFFCF0E0F1CA
:10520600FFFFFFFFFFFCF0010101010101010100A9
:105216000000000000000000000000000000000088
:105226000000000000000000000000000000000078
:105236000000000000000000000000030303030359
:105246000303030101010100000000000000030F39
:105256001F3F7F7FFFFFFFFF7F7F1F0300000000D0
:105266000000000000000000000000000000000038
:1052760000000000000000000000000078005265F9
:10528600676920616E6420546F626900707265738D
:10529600656E74730074657374003C2053544152F8
:1052A600542047414D45203E003C20435245444949
:1052B6005453203E003C20455849542047414D4513
:1052C600203E00435245444954533A0043726561B7
:1052D6007465642062793A00546F6269617320557F
:1052E6006C7269636820616E6420526567696E61DD
:1052F6006C646F2064612053696C76612E0057726E
:10530600697474656E20696E20432020776974681D
:105316002041726475696E6F2020556E6F2E0044B1
:1053260065632C20323031342E004C4556454C20D6
:10533600310047414D45204F564552004008380838
:1053460030080000000000000000000000002808EF
:10535600000000002008000000000000000000001F
:105366000000000000000000000000000000000037
:105376000000000000000000000000000000000027
:105386000000000000000000000000000000000017
:105396000000000000000000000000000000000007
:1053A60000000000000018081008000000000000BF
:1053B60000000000000000000000000000000000E7
:1053C60000000000000008080008000000000000BF
:1053D600F807F007E807E007D8070000000000001C
:1053E60000000000000000000000000000000000B7
:1053F60000000000000000000000000000000000A7
:1054060000000000D007C8070000000000000000F0
:105416000000000000000000000000000000000086
:1054260000000000C007B8070000000000000000F0
:105436000000000000000000000000000000000066
:105446000000000000000000000000000000000056
:1054560000000000000000000000B007A8070000E0
:105466000000000000000000000000000000000036
:1054760000000000000000000000D807A007980701
:1054860000000000921B2722B223B717BD18D418BC
:105496006E18EA181F193D1900000000921B2722FA
:1054A600881CB717BD18D4186E18EA181F193D19AD
:1054B60000000000BB2027223D20562048209920CE
:1054C6000D0A006E616E00696E66006F76660000FA
:107E0000112484B714BE81FFF0D085E080938100F7
:107E100082E08093C00088E18093C10086E0809377
:107E2000C20080E18093C4008EE0C9D0259A86E02C
:107E300020E33CEF91E0309385002093840096BBD3
:107E4000B09BFECF1D9AA8958150A9F7CC24DD24C4
:107E500088248394B5E0AB2EA1E19A2EF3E0BF2EE7
:107E6000A2D0813461F49FD0082FAFD0023811F036
:107E7000013811F484E001C083E08DD089C08234E0
:107E800011F484E103C0853419F485E0A6D080C0E4
:107E9000853579F488D0E82EFF2485D0082F10E0AE
:107EA000102F00270E291F29000F111F8ED06801E7
:107EB0006FC0863521F484E090D080E0DECF843638
:107EC00009F040C070D06FD0082F6DD080E0C81688
:107ED00080E7D80618F4F601B7BEE895C0E0D1E017
:107EE00062D089930C17E1F7F0E0CF16F0E7DF06D8
:107EF00018F0F601B7BEE89568D007B600FCFDCFD4
:107F0000A601A0E0B1E02C9130E011968C91119780
:107F100090E0982F8827822B932B1296FA010C0160
:107F200087BEE89511244E5F5F4FF1E0A038BF0790
:107F300051F7F601A7BEE89507B600FCFDCF97BE46
:107F4000E89526C08437B1F42ED02DD0F82E2BD052
:107F50003CD0F601EF2C8F010F5F1F4F84911BD097
:107F6000EA94F801C1F70894C11CD11CFA94CF0C13
:107F7000D11C0EC0853739F428D08EE10CD085E9AC
:107F80000AD08FE07ACF813511F488E018D01DD067
:107F900080E101D065CF982F8091C00085FFFCCF94
:107FA0009093C60008958091C00087FFFCCF809118
:107FB000C00084FD01C0A8958091C6000895E0E648
:107FC000F0E098E1908380830895EDDF803219F02E
:107FD00088E0F5DFFFCF84E1DECF1F93182FE3DFCA
:107FE0001150E9F7F2DF1F91089580E0E8DFEE27F6
:047FF000FF270994CA
:027FFE00040479
:0400000300007E007B
:00000001FF
